:020000040800F2
:100000000000012025210008A91A0008AF1A0008E5
:10001000B51A0008BB1A0008C11A00080000000049
:100020000000000000000000000000000184000843
:10003000C71A00080000000051860008715400082B
:100040007521000875210008752100087521000838
:100050007521000875210008752100087521000828
:100060007521000875210008752100087521000818
:100070007521000875210008752100087521000808
:100080007521000875210008752100080000000096
:1000900000000000000000000000000075210008C2
:1000A00075210008D51A000875210008752100087F
:1000B000F11A000875210008752100087521000853
:1000C00075210008752100087521000875210008B8
:1000D0007521000875210008752100080000000046
:1000E0007521000875210008752100080000000036
:1000F0000000000000000000000000007521000862
:100100000000000075210008752100087521000815
:1001100000000000000000000000000000000000DF
:100120007521000875210008752100087521000857
:100130007521000800000000000000000000000021
:100140000000000000000000000000007521000811
:100150007521000875210008752100087521000827
:100160007521000875210008000000000000000053
:10017000000000000000000000000000000000007F
:1001800000000000752100080000000000000000D1
:0401900075210008CD
:1001A00010B5054C237833B9044B13B10448AFF3B1
:1001B00000800123237010BD6000002000000000BB
:1001C000808D000808B5034B1BB103490348AFF30A
:1001D000008008BD0000000064000020808D000841
:1001E00070B54FF0FF0C4CF4E06C1CEA11541DBFCD
:1001F0001CEA135594EA0C0F95EA0C0F00F0DEF898
:100200002C4481EA030621EA4C5123EA4C5350EA7C
:10021000013518BF52EA033541F4801143F48013CD
:1002200038D0A0FB02CE4FF00005E1FB02E506F05E
:100230000042E0FB03E54FF00006E1FB03569CF0B3
:10024000000F18BF4EF0010EA4F1FF04B6F5007FB9
:1002500064F5407404D25FEA4E0E6D4146EB06062B
:1002600042EAC62141EA55514FEAC52040EA5E50B4
:100270004FEACE2EB4F1FD0C88BFBCF5E06F1ED85E
:10028000BEF1004F08BF5FEA500E50F1000041EB95
:10029000045170BD06F0004646EA010140EA020042
:1002A00081EA0301B4EB5C04C2BFD4EB0C0541EA64
:1002B000045170BD41F480114FF0000E013C00F379
:1002C000AB8014F1360FDEBF002001F0004170BD9D
:1002D000C4F10004203C35DA0C341BDC04F11404B6
:1002E000C4F1200500FA05F320FA04F001FA05F242
:1002F00040EA020001F0004221F0004110EBD3700F
:1003000021FA04F642EB06015EEA430E08BF20EA3A
:10031000D37070BDC4F10C04C4F1200500FA04F3DD
:1003200020FA05F001FA04F240EA020001F000416F
:1003300010EBD37041F100015EEA430E08BF20EAE2
:10034000D37070BDC4F1200500FA05F24EEA020E2A
:1003500020FA04F301FA05F243EA020321FA04F059
:1003600001F0004121FA04F220EA020000EBD37010
:100370005EEA430E08BF20EAD37070BD94F0000F10
:100380000FD101F00046400041EB010111F4801F44
:1003900008BF013CF7D041EA060195F0000F18BFF5
:1003A000704703F00046520043EB030313F4801F31
:1003B00008BF013DF7D043EA0603704794EA0C0FEB
:1003C0000CEA135518BF95EA0C0F0CD050EA410601
:1003D00018BF52EA4306D1D181EA030101F000417E
:1003E0004FF0000070BD50EA410606BF10461946A6
:1003F00052EA430619D094EA0C0F02D150EA0136B2
:1004000013D195EA0C0F05D152EA03361CBF1046F2
:1004100019460AD181EA030101F0004141F0FE4191
:1004200041F470014FF0000070BD41F0FE4141F415
:10043000780170BD81F0004102E000BF83F000430D
:1004400030B54FEA41044FEA430594EA050F08BF6F
:1004500090EA020F1FBF54EA000C55EA020C7FEA33
:10046000645C7FEA655C00F0E2804FEA5454D4EBB0
:100470005555B8BF6D420CDD2C4480EA020281EA7A
:10048000030382EA000083EA010180EA020281EAB2
:100490000303362D88BF30BD11F0004F4FEA013104
:1004A0004FF4801C4CEA113102D0404261EB410113
:1004B00013F0004F4FEA03334CEA133302D0524299
:1004C00063EB430394EA050F00F0A780A4F1010455
:1004D000D5F1200E0DDB02FA0EFC22FA05F280188F
:1004E00041F1000103FA0EF2801843FA05F3594175
:1004F0000EE0A5F120050EF1200E012A03FA0EFCF4
:1005000028BF4CF0020C43FA05F3C01851EBE3711D
:1005100001F0004507D54FF0000EDCF1000C7EEB3A
:1005200000006EEB0101B1F5801F1BD3B1F5001F78
:100530000CD349085FEA30004FEA3C0C04F1010497
:100540004FEA445212F5800F80F09A80BCF1004FC0
:1005500008BF5FEA500C50F1000041EB045141EA42
:10056000050130BD5FEA4C0C404141EB0101013C0B
:1005700028BFB1F5801FE9D291F0000F04BF0146FA
:100580000020B1FA81F308BF2033A3F10B03B3F1CC
:1005900020020CDA0C3208DD02F1140CC2F10C025C
:1005A00001FA0CF021FA02F10CE002F11402D8BFBA
:1005B000C2F1200C01FA02F120FA0CFCDCBF41EA86
:1005C0000C019040E41AA2BF01EB0451294330BD55
:1005D0006FEA04041F3C1CDA0C340EDC04F1140432
:1005E000C4F1200220FA04F001FA02F340EA030009
:1005F00021FA04F345EA030130BDC4F10C04C4F14F
:10060000200220FA02F001FA04F340EA030029462E
:1006100030BD21FA04F0294630BD94F0000F83F478
:10062000801306BF81F480110134013D4EE77FEA5B
:10063000645C18BF7FEA655C29D094EA050F08BFA7
:1006400090EA020F05D054EA000C04BF1946104688
:1006500030BD91EA030F1EBF0021002030BD5FEACC
:10066000545C05D14000494128BF41F0004130BDF4
:1006700014F580043CBF01F5801130BD01F0004548
:1006800045F0FE4141F470014FF0000030BD7FEABB
:10069000645C1ABF194610467FEA655C1CBF0B46B6
:1006A000024650EA013406BF52EA033591EA030FCD
:1006B00041F4002130BD00BF90F0000F04BF0021C5
:1006C000704730B54FF4806404F132044FF00005F8
:1006D0004FF0000150E700BF90F0000F04BF002171
:1006E000704730B54FF4806404F1320410F00045D7
:1006F00048BF40424FF000013EE700BF42004FEAD2
:10070000E2014FEA31014FEA02701FBF12F07F434E
:1007100093F07F4F81F06051704732F07F4208BF05
:10072000704793F07F4F04BF41F40021704730B50C
:100730004FF4607401F0004521F000411CE700BF58
:1007400050EA010208BF704730B54FF000050AE0DB
:1007500050EA010208BF704730B511F0004502D5DC
:10076000404261EB41014FF4806404F132045FEADE
:10077000915C3FF4D8AE4FF003025FEADC0C18BF87
:1007800003325FEADC0C18BF033202EBDC02C2F179
:10079000200300FA03FC20FA02F001FA03FE40EA0B
:1007A0000E0021FA02F11444BDE600BF4A0011D246
:1007B00012F5001211D20DD56FF47873B3EB6252BB
:1007C0000ED44FEAC12343F0004343EA505323FAC7
:1007D00002F070474FF00000704750EA013002D13C
:1007E0004FF0FF3070474FF00000704753B94AB9DF
:1007F000002908BF00281CBF4FF0FF314FF0FF3029
:1008000000F070B9ADF1080C6DE904CE00F006F807
:10081000DDF804E0DDE9022304B070472DE9F0477C
:10082000089E0D4604460F46002B4AD18A42944644
:1008300065D9B2FA82F343B102FA03FCC3F1200294
:100840009F4020FA02F217439C404FEA1C4E1FFAC9
:100850008CF5B7FBFEF1220C0EFB117742EA074242
:1008600001FB05F090420AD91CEB020201F1FF37AF
:1008700080F01C81904240F2198102396244121AC0
:10088000A4B2B2FBFEF00EFB102244EA024400FBCD
:1008900005F5A5420AD91CEB040400F1FF3280F0F3
:1008A0000781A54240F204816444023840EA0140D5
:1008B000641B00211EB1DC400023C6E90043BDE8F3
:1008C000F0878B4208D9002E00F0ED800021C6E9A8
:1008D00000050846BDE8F087B3FA83F1002949D145
:1008E000AB4202D3824200F2F880841A65EB030225
:1008F00001201746002EE2D0C6E90047DFE702B923
:10090000FFDEB2FA82F3002B40F090808A1A4FEAA1
:100910001C471FFA8CFE0121B2FBF7F507FB1520DF
:10092000220C42EA00420EFB05F0904208D91CEB73
:10093000020205F1FF3802D2904200F2CB80454618
:10094000121AA4B2B2FBF7F007FB102244EA0244E9
:100950000EFB00FEA64508D91CEB040400F1FF3293
:1009600002D2A64500F2BB801046A4EB0E0440EA7A
:1009700005409FE7C1F120078B4022FA07FC4CEAB3
:10098000030C05FA01F420FA07F3FD404FEA1C4975
:100990002343B5FBF9F81FFA8CFE09FB18551C0C14
:1009A00044EA054408FB0EF5A54202FA01F200FAFA
:1009B00001F00BD91CEB040408F1FF3A80F08880A9
:1009C000A54240F28580A8F102086444641B9DB2F0
:1009D000B4FBF9F309FB134445EA044403FB0EFEA0
:1009E000A64508D91CEB040403F1FF356CD2A645DB
:1009F0006AD9023B644443EA0843A3FB0295A4EB93
:100A00000E04AC42C846AE4656D353D056B1B0EBF6
:100A1000080264EB0E0404FA07F7CA40CC401743FF
:100A2000C6E9007418460021BDE8F087C3F1200133
:100A300002FA03FC20FA01F225FA01F19D402A4353
:100A40004FEA1C471FFA8CFEB1FBF7F007FB1015AD
:100A5000110C41EA054100FB0EF58D4204FA03F446
:100A600008D91CEB010100F1FF382FD28D422DD99E
:100A700002386144491B92B2B1FBF7F507FB15112F
:100A800042EA014205FB0EF1914208D91CEB020239
:100A900005F1FF3816D2914214D9023D6244521A30
:100AA00045EA004138E73146304608E73946E6E690
:100AB0001046FBE64845A9D2B9EB020865EB0C0EDF
:100AC000013BA3E74546EAE72B4694E74046D1E7DA
:100AD000D0467BE7023D624432E708460AE76444B9
:100AE000023842E7704700BF80B400AFBFF34F8FBA
:100AF00000BF064BDB6803F4E0620449044B134378
:100B0000CB60BFF34F8F00BF00BFFDE700ED00E0FB
:100B10000400FA0580B582B000AF0023FB7100230A
:100B2000BB7100237B71642200212D4808F03EF840
:100B30004FF0FF3301222A492A4804F0A8F803465F
:100B4000BB71BB79002B02D00023FB7142E0244B28
:100B50001B787B717B799AB24FF0FF332249214891
:100B600004F095F80346BB71BB79002B02D000233B
:100B7000FB712FE01A4B5B78103B042B2AD801A2A3
:100B800052F823F0990B0008A50B0008B10B0008E0
:100B9000BD0B0008C90B0008114800F027F801231D
:100BA000FB7117E00E4800F06EF80123FB7111E0B5
:100BB0000B4800F0ADF80123FB710BE0084800F092
:100BC00056F90123FB7105E0054800F0EBF901231C
:100BD000FB7100BFFB7918460837BD4680BD00BFDA
:100BE0007C000020300200207D00002080B586B00F
:100BF00000AF78600023FB8200233B610023FB8170
:100C00007B681B789BB20133FB82FB8A043B7A68CA
:100C100013441B683B614FF4FA7004F01FFDFB8A1C
:100C2000043B3A691946786800F04CFA0346012BF8
:100C300013D100F085FA0C4B1B689BB2C3F30B0376
:100C40009BB2FB814FF4FA7004F008FD07F10E032C
:100C50000221184600F098FA01E000F083FA00BF84
:100C60001837BD4680BD00BF002004E080B588B0C5
:100C700000AF3B1D184601F021FE7B69DBB2184630
:100C80002037BD4680BD80B586B000AF78600023B8
:100C9000FB8200233B610023FB737B681B789BB2C4
:100CA0000133FB82FB8A043B7A6813441B683B6177
:100CB0004FF4FA7004F0D2FCFB8A043B3A691946FF
:100CC000786800F0FFF90346012B1BD100F038FAD9
:100CD0004FF4FA7004F0C2FCFFF7C8FF0346FB7341
:100CE000FB7BAA2B02D10023FB7304E0FB7B552B7B
:100CF00001D10123FB7307F10F030121184600F016
:100D000043FA01E000F02EFA00BF1837BD4680BD5F
:100D100080B584B000AF78600023FB810023BB6006
:100D20007B681B789BB20133FB81FB89043B7A68AB
:100D300013441B68BB604FF4FA7004F08FFCFB890E
:100D4000043BBA681946786800F0BCF90346012BE9
:100D50001BD100F0F5F94FF4FA7004F07FFC0E4B54
:100D60001B68B3F1FF3F08D00C4B01221A70012120
:100D70000A4800F009FAFFF7B7FE084B00221A7084
:100D80000121064800F000FA01E000F0EBF900BF95
:100D90001037BD4680BD00BF00C00008E000002045
:100DA00080B58AB000AF03460A46FB711346BB719B
:100DB000002387F82730002387F82630012387F89F
:100DC00025300023FB60BB79062B03D9002387F86D
:100DD000273046E0FB79052B02D9FB79FF2B3DD16B
:100DE000FB79FF2B02D101233B6112E0FB79C3F1B8
:100DF000060387F82630BA7997F826309A4202D946
:100E000097F82630BB7100233B61FB79BB61BB794E
:100E1000FB6101237B6102233B6201F06DFB034612
:100E200087F8253007F10C0207F110031146184628
:100E300001F0D4FC034687F82530FB68B3F1FF3F8F
:100E400003D1032387F8273002E0022387F82730F5
:100E500001F074FB034687F8253002E0022387F88F
:100E6000273097F8273018462837BD4680BD80B513
:100E700086B000AF78600023FB8200233B61002333
:100E8000FB737B681B789BB20133FB82FB8A043BBC
:100E90007A6813441B683B614FF4FA7004F0DEFB80
:100EA000FB8A043B3A691946786800F00BF903465F
:100EB000012B1CD100F044F901210320FFF770FF42
:100EC0000346FB734FF4FA7004F0C8FBFB7B032B63
:100ED00006D107F10F030121184600F055F908E08B
:100EE00007F10F030121184600F04EF901E000F070
:100EF00039F900BF1837BD4680BDB0B586B000AF28
:100F0000F860B9601346FB800123FB750023BB75B5
:100F10000023BB8201F0F0FA0346FB75FB7D002B3A
:100F200002D00023BB7523E00023BB821CE0BA8AF9
:100F3000BB68D118BB8AFA6813441B78DBB2002265
:100F40001C46154622462B46002001F081FA034636
:100F5000FB75FB7D002B02D00023BB7508E001234D
:100F6000BB75BB8A0133BB82BA8AFB889A42DED347
:100F7000BB7D012B0FD1FB7D002B0CD101F0DEFAE4
:100F80000346FB75FB7D002B02D00023BB7504E0FC
:100F90000123BB7501E00023BB75BB7D18461837E4
:100FA000BD46B0BD80B586B000AF78600023FB823F
:100FB00000233B610023FB600023FB720023BB7214
:100FC00000237B727B681B789BB20133FB82FB8A18
:100FD000043B7A6813441B683B614FF4FA7004F0D9
:100FE0003DFBFB8A043B3A691946786800F06AF8D1
:100FF0000346012B38D100F0A3F87B68D3F8023008
:10100000FB607B689B79FB72F86800F033F803465D
:10101000BB72BB7A012B1ED17B680733FA7A92B27E
:10102000F9681846FFF769FF03467B724FF4FA70C0
:1010300004F014FB7B7A012B06D107F1090301218F
:10104000184600F0A1F811E007F109030121184644
:1010500000F09AF80AE00023BB7207F10A030121AD
:10106000184600F091F801E000F07CF800BF183756
:10107000BD4680BD80B485B000AF78600023FB73AF
:101080007B68B3F1005F06D37B680D4A934202D8B8
:101090000123FB730CE07B68B3F1006F06D37B6820
:1010A000B3F1016F02D80123FB7301E00023FB734E
:1010B000FB7B18461437BD465DF8047B704700BFC4
:1010C0000000012080B588B000AFF860B9607A6098
:1010D0000023FB770023BB610023FB7500233B61EA
:1010E0000023FB750FE0FB7DFA6813441B783B611E
:1010F00007F1100301221946104801F07DF9B8618B
:10110000FB7D0133FB75FB7DBA689A42EBD80B4B34
:101110001B689A68094B1B6842F001029A60BA6921
:101120007B689A4202D10123FB7701E00023FB7721
:10113000FB7F18462037BD4680BD00BFE40000207D
:1011400080B582B000AF0123FB71F91D4FF0FF3372
:101150000122034803F010FD00BF0837BD4680BDE3
:101160003002002080B582B000AF0023FB71F91D72
:101170004FF0FF330122034803F0FEFC00BF0837A5
:10118000BD4680BD3002002080B582B000AF7860DF
:1011900039603B689AB24FF0FF337968034803F037
:1011A000EBFC00BF0837BD4680BD00BF3002002009
:1011B00080B500AF064B074A1A60054801F000F9F8
:1011C0000346002B01D000F089FA00BF80BD00BFAC
:1011D000E40000200030024080B485B000AF7860A9
:1011E0007B681B680B4A93420DD10023FB600A4BBE
:1011F0001B6B094A43F480531363074B1B6B03F4C7
:101200008053FB60FB6800BF1437BD465DF8047B6C
:10121000704700BF003002400038024080B500AF88
:10122000104A0121012004F034FA03460E4A1360EB
:101230000E4A0221012004F04BFB03460C4A1360C6
:101240000C4A00210C4804F077F903460B4A13605E
:101250000B4A00210B4804F06FF903460A4A136059
:1012600000BF80BD508E0008F8000020388E0008B6
:10127000F4000020F08D00088D120008EC00002022
:10128000148E000809130008F000002080B582B019
:1012900000AF78600821184802F076FC174B1B68F5
:1012A0000021184604F07EFA0346002B20D10122CB
:1012B0000421134801F0A8FD0F4B1B6800225A625D
:1012C00000BF0D4B1B685B6A092BFAD90022042171
:1012D0000B4801F099FD084B1B68DA68064B1B6848
:1012E00042F00802DA604FF40051064801F0A5FD13
:1012F0003C2004F0B3F9D1E748010020F8000020B9
:10130000000402400008024080B584B000AF78605D
:101310000023BB810023FB720023FB7300F0E4F980
:1013200007F10B0100230122544803F0B0FCFB7AC3
:10133000002B1CD0FB7A4B2B19D0FB7A552B04D1F8
:101340000023FB72FFF7E6FB13E0FB7A462B08D085
:10135000FB7A422B05D0FB7A522B02D0FB7A4C2B26
:1013600002D1FB7AFB7304E00023FB7301E0FB7BFB
:10137000FB72FB7A303B232B7CD801A252F823F07E
:1013800051140008511400085114000851140008A9
:101390005114000851140008751400087514000851
:1013A00075140008751400087514000875140008F9
:1013B00075140008751400087514000875140008E9
:1013C0007514000875140008391400087514000815
:1013D000751400087514000811140008751400082D
:1013E00075140008751400087514000875140008B9
:1013F00045140008751400087514000875140008D9
:1014000075140008751400083F1400084B140008F8
:101410001B4B186807F10C010023012204F02CFB80
:10142000BB89132B05D8BB89002B02D000F0C8F96B
:1014300020E000F07DF91DE000F08CF91AE000F0EA
:101440009BF917E000F0AAF914E000F0B9F911E0F7
:10145000FB7AA3F1300213469B0013449B0007EE76
:10146000903AF8EEE77AB0EE670A00F0C9F9002387
:10147000FB7200BF282004F0F1F851E73002002091
:10148000F400002080B588B000AF07F10C03002203
:101490001A605A609A60DA601A610023BB60334BAD
:1014A0001B6B324A43F004031363304B1B6B03F096
:1014B0000403BB60BB6800237B602C4B1B6B2B4A77
:1014C00043F001031363294B1B6B03F001037B60A3
:1014D0007B6800233B60254B1B6B244A43F00203CF
:1014E0001363224B1B6B03F002033B603B6800223B
:1014F0004FF400511E4801F087FC00220F211D48C7
:1015000001F082FC002204211B4801F07DFC4FF415
:101510000053FB6001233B6100237B610023BB611F
:1015200007F10C031946124801F0EAFA0F23FB6099
:1015300001233B6100237B610023BB6107F10C03A6
:1015400019460C4801F0DCFA0423FB6001233B61DF
:1015500000237B610023BB6107F10C031946064899
:1015600001F0CEFA00BF2037BD4680BD00380240F2
:1015700000080240000002400004024080B584B030
:1015800000AF164B1B68B3F1FF3F0FD0134B1B6826
:10159000FB60134B1B68BB60BB687B60FB683B60F8
:1015A0003B6883F3088800BF7B68984700F0E4FD40
:1015B00000F018F8FFF766FF00F008FB00F040FDB0
:1015C00000F07EFB00F0B0FAFFF7F2FD03F06AFFD7
:1015D000FFF724FE03F08AFFFEE700BF00C000080B
:1015E00004C0000880B594B000AF07F1200330229A
:1015F0000021184607F0DAFA07F10C0300221A60FE
:101600005A609A60DA601A610023BB60284B1B6C39
:10161000274A43F080531364254B1B6C03F080531F
:10162000BB60BB6800237B60224B1B6823F44043F4
:10163000204A43F4004313601E4B1B6803F44043ED
:101640007B607B6802233B620123FB6210233B63C8
:101650000223BB630023FB6308233B6454237B64A6
:101660000223BB640423FB6407F12003184601F046
:10167000FFFB0346002B01D000F030F80F23FB6086
:1016800002233B6100237B614FF48053BB61002345
:10169000FB6107F10C030221184601F061FE0346CD
:1016A000002B01D000F01AF800BF5037BD4680BDB6
:1016B000003802400070004080B582B000AF786012
:1016C0007B681B68044A934201D100F077FD00BF9C
:1016D0000837BD4680BD00BF0000014080B400AFA8
:1016E00072B600BFFEE7000080B500AF0D4B0022D0
:1016F0001A700C4B1A780C4B1A7000F0B5F80021D8
:101700000A4802F041F90421084802F03DF9082195
:10171000064802F039F90C21044802F035F900BFFF
:1017200080BD00BFFD000020FC00002090010020D3
:1017300080B500AF01220321054801F065FB0022BE
:101740000C21034801F060FB00F08EF800BF80BD63
:101750000000024080B500AF00220321054801F0DF
:1017600053FB01220C21034801F04EFB00F07CF8F2
:1017700000BF80BD0000024080B500AF01220521FE
:10178000054801F041FB00220A21034801F03CFB1F
:1017900000F06AF800BF80BD0000024080B500AFD5
:1017A00000220521054801F02FFB01220A210348F0
:1017B00001F02AFB00F058F800BF80BD0000024095
:1017C00080B500AF9FED0C0A00210C4800F08CF8AA
:1017D0009FED090A0421094800F086F89FED060AEA
:1017E0000821064800F080F89FED030A0C21034809
:1017F00000F07AF800BF80BD0000000090010020DA
:1018000080B483B000AF87ED010AD7ED017AFCEE1A
:10181000E77AC7ED007A3B78DAB2114B1B789A422F
:1018200017D0D7ED017AFCEEE77AC7ED007A3B7866
:10183000DBB2642B0DD80A4B1A780A4B1A70D7ED1D
:10184000017AFCEEE77AC7ED007A3B78DAB2044B16
:101850001A7000BF0C37BD465DF8047B704700BFAF
:10186000FD000020FC00002080B500AF1B4B1A7863
:101870001B4B1B789A422FD0194B1B7807EE903ADE
:10188000F8EE677AB0EE670A0021164800F02CF8EF
:10189000134B1B7807EE903AF8EE677AB0EE670AC2
:1018A0000421104800F020F80D4B1B7807EE903A09
:1018B000F8EE677AB0EE670A08210A4800F014F8DB
:1018C000074B1B7807EE903AF8EE677AB0EE670A9E
:1018D0000C21044800F008F800BF80BDFC00002087
:1018E000FD0000209001002080B487B000AFF860B8
:1018F000B96087ED010AFB681B68DB6A7B61D7ED85
:10190000017ADFED196A87EEA67A7B6907EE903AD5
:10191000F8EE677A67EE277AFCEEE77A17EE903AF0
:101920003B61BB68002B04D1FB681B683A695A63B2
:1019300013E0BB68042B04D1FB681A683B6993630E
:101940000BE0BB68082B04D1FB681A683B69D363C2
:1019500003E0FB681A683B69136400BF1C37BD468F
:101960005DF8047B704700BF0000C84280B582B0BC
:1019700000AF00237B60124B5B6C114A43F4804341
:1019800053640F4B5B6C03F480437B607B680023E4
:101990003B600B4B1B6C0A4A43F080531364084BAB
:1019A0001B6C03F080533B603B6800220F216FF0FB
:1019B000010000F0DBFC00BF0837BD4680BD00BF62
:1019C0000038024080B58CB000AF78600023BB6265
:1019D00000237B620023BB602E4B5B6C2D4A43F0DF
:1019E000010353642B4B5B6C03F00103BB60BB68CA
:1019F00007F10C0207F110031146184601F090FEA2
:101A000001F07AFEB862BB6A234AA2FB03239B0C57
:101A1000013B7B62214B224A1A60204B40F2E732A5
:101A2000DA601E4A7B6A53601C4B00221A611B4B12
:101A300000229A60194B00229A61184801F0A2FE18
:101A4000034687F82F3097F82F30002B1BD113480F
:101A500001F0E8FE034687F82F3097F82F30002B6F
:101A600011D1192000F09EFC7B680F2B08D80022B2
:101A70007968192000F07AFC0A4A7B68136002E05A
:101A8000012387F82F3097F82F3018463037BD469E
:101A900080BD00BF0038024083DE1B4300010020F0
:101AA000000001400400002080B400AFFEE780B4D5
:101AB00000AFFEE780B400AFFEE780B400AFFEE702
:101AC00080B400AFFEE780B400AF00BFBD465DF854
:101AD000047B704780B500AF034802F06FF90348FC
:101AE00002F06CF900BF80BD00010020D801002089
:101AF00080B500AF024802F061F900BF80BD00BFB1
:101B00004801002080B400AF064BD3F88830054A66
:101B100043F47003C2F8883000BFBD465DF8047B13
:101B2000704700BF00ED00E080B586B000AF07F160
:101B3000100300221A605A603B4600221A605A6065
:101B40009A60DA60204B4FF080421A601E4B53229D
:101B50005A601D4B00229A601B4B4FF0FF32DA6037
:101B6000194B00221A61184B00229A61164801F0A5
:101B7000BBFF0346002B01D0FFF7B0FD00233B6104
:101B800000237B6107F1100319460F4802F022FF82
:101B90000346002B01D0FFF7A1FD00233B6001238A
:101BA0007B600023BB600023FB603B460822194694
:101BB000054802F0F3F90346002B01D0FFF78EFD34
:101BC00000BF1837BD4680BD4801002080B58AB0EF
:101BD00000AF07F1200300221A605A603B1D00226B
:101BE0001A605A609A60DA601A615A619A61324BDF
:101BF000324A1A60304B00225A602F4B00229A6002
:101C00002D4B4FF6FF72DA602B4B00221A612A4BE4
:101C100000229A61284801F067FE0346002B01D09C
:101C2000FFF75CFD00233B6200237B6207F120038A
:101C30001946214802F0CEFE0346002B01D0FFF7E3
:101C40004DFD60237B600023BB600023FB6000230D
:101C50007B613B1D00221946174802F03BFA034600
:101C6000002B01D0FFF73AFD3B1D04221946124814
:101C700002F030FA0346002B01D0FFF72FFD3B1D89
:101C8000082219460C4802F025FA0346002B01D021
:101C9000FFF724FD3B1D0C221946074802F01AFAF3
:101CA0000346002B01D0FFF719FD034800F0C4F8EC
:101CB00000BF2837BD4680BD9001002000040040D1
:101CC00080B500AF0E4B0F4A1A600D4B53225A607D
:101CD0000B4B00229A600A4B4FF6FF72DA60084BFA
:101CE00000221A61064B00229A61054801F04AFD64
:101CF0000346002B01D0FFF7F1FC00BF80BD00BF01
:101D0000D80100200044014080B58AB000AF78605F
:101D100007F1140300221A605A609A60DA601A61AF
:101D20007B681B68B3F1804F34D100233B611B4BB0
:101D30001B6C1A4A43F001031364184B1B6C03F02D
:101D400001033B613B690023FB60144B1B6B134A8F
:101D500043F002031363114B1B6B03F00203FB60A0
:101D6000FB684FF480637B610223BB610023FB614E
:101D700000233B6201237B6207F1140319460848E4
:101D800000F0BEFE002205211C2000F0EFFA1C200E
:101D900000F008FB00BF2837BD4680BD0038024078
:101DA0000004024080B485B000AF78607B681B6897
:101DB0000B4A93420DD10023FB600A4B1B6C094A6E
:101DC00043F002031364074B1B6C03F00203FB6038
:101DD000FB6800BF1437BD465DF8047B704700BF49
:101DE000000400400038024080B584B000AF786045
:101DF0007B681B680E4A934215D10023FB600D4B94
:101E00005B6C0C4A43F4003353640A4B5B6C03F481
:101E10000033FB60FB6800220F21192000F0A6FAB6
:101E2000192000F0BFFA00BF1037BD4680BD00BFCB
:101E3000004401400038024080B58AB000AF7860AD
:101E400007F1140300221A605A609A60DA601A617E
:101E50007B681B68214A93423BD100233B61204BA6
:101E60001B6B1F4A43F0010313631D4B1B6B03F0F5
:101E700001033B613B690023FB60194B1B6B184A54
:101E800043F002031363164B1B6B03F00203FB606A
:101E9000FB68C0237B610223BB610023FB6100233D
:101EA0003B6202237B6207F1140319460D4800F0E0
:101EB00027FE03237B610223BB610023FB61002318
:101EC0003B6202237B6207F114031946064800F0C7
:101ED00017FE00BF2837BD4680BD00BF000400408C
:101EE00000380240000002400004024000000000F0
:101EF00080B582B000AF7860494B1B78DBB2002B15
:101F00001AD10821786802F0A7F90346454A136000
:101F1000434B01221A707B681B681A6A7B681B6836
:101F200022F420621A627B681B681A6A7B681B684D
:101F300042F400721A626BE0394B1B78DBB2012B62
:101F400066D10821786802F087F90346364A1360A3
:101F50007B681B6800225A62334B1A68314B1B683E
:101F60009A4207D9304B1A682E4B1B68D31A2F4A56
:101F700013600FE02B4B1A682B4B1B689A4209D950
:101F8000294B1A68274B1B68D31A03F57F43FF338D
:101F9000264A1360254B1B681846FEF78DFB1EA3CF
:101FA000D3E90023FEF71CF902460B4610461946FA
:101FB000FEF7FCFB03469AB21D4B1A801D4B1B68B3
:101FC000184603F0B7FD1B4B18680023012218497F
:101FD00003F0F2FC124B00221A707B681B681A6A2D
:101FE0007B681B6822F420621A627B681A687B682F
:101FF0001B68126A1A62104B1B68DA680E4B1B686A
:1020000022F00802DA600D4B1B68184603F01CFC36
:1020100000BF0837BD4680BD6519E25817B7913F2C
:102020002202002024020020280200202C0200208E
:1020300020020020F400002048010020F8000020C9
:1020400080B500AF114B124A1A60104B4FF4E132C9
:102050005A600E4B00229A600C4B0022DA600B4B48
:1020600000221A61094B0C225A61084B00229A6126
:10207000064B0022DA61054802F02EFD0346002BD4
:1020800001D0FFF72BFB00BF80BD00BF3002002056
:102090000010014080B58AB000AF786007F11403EA
:1020A00000221A605A609A60DA601A617B681B68C5
:1020B000194A93422CD100233B61184B5B6C174AA1
:1020C00043F010035364154B5B6C03F010033B614A
:1020D0003B690023FB60114B1B6B104A43F001036B
:1020E00013630E4B1B6B03F00103FB60FB684FF4A3
:1020F000C0637B610223BB610023FB6103233B625E
:1021000007237B6207F114031946054800F0F8FC29
:1021100000BF2837BD4680BD001001400038024096
:1021200000000240DFF834D0FFF7ECFC0C480D490A
:102130000D4A002302E0D458C4500433C4188C4222
:10214000F9D30A4A0A4C002301E013600432A24288
:10215000FBD306F089FDFFF711FA7047000001205C
:102160000000002060000020888E00086000002031
:10217000C44D0020FEE7000080B500AF0E4B1B6889
:102180000D4A43F4007313600B4B1B680A4A43F477
:1021900080631360084B1B68074A43F48073136025
:1021A000032000F0D8F80F20FFF70CFCFFF7DEFB50
:1021B0000023184680BD00BF003C024080B400AF41
:1021C000064B1B781A46064B1B681344044A1360DF
:1021D00000BFBD465DF8047B704700BF08000020CB
:1021E0007802002080B400AF034B1B681846BD4640
:1021F0005DF8047B704700BF7802002080B485B092
:1022000000AF78607B6803F00703FB600C4BDB6872
:10221000BB60BA684FF6FF031340BB60FB681A024D
:10222000BB68134343F0BF6343F40033BB60044A0D
:10223000BB68D36000BF1437BD465DF8047B7047B0
:1022400000ED00E080B400AF044BDB681B0A03F034
:1022500007031846BD465DF8047B704700ED00E0BB
:1022600080B483B000AF0346FB7197F90730002BB1
:102270000BDBFB7903F01F02074997F907305B0975
:10228000012000FA02F241F8232000BF0C37BD46BE
:102290005DF8047B704700BF00E100E080B483B0CC
:1022A00000AF03463960FB7197F90730002B0ADB5A
:1022B0003B68DAB20C4997F907301201D2B20B44ED
:1022C00083F800230AE03B68DAB20849FB7903F09F
:1022D0000F03043B1201D2B20B441A7600BF0C3735
:1022E000BD465DF8047B704700E100E000ED00E0D2
:1022F00080B489B000AFF860B9607A60FB6803F021
:102300000703FB61FB69C3F10703042B28BF042308
:10231000BB61FB690433062B02D9FB69033B00E078
:1023200000237B614FF0FF32BB6902FA03F3DA430B
:10233000BB681A407B699A404FF0FF317B6901FA14
:1023400003F3D9437B680B40134318462437BD463B
:102350005DF8047B704780B582B000AF7860786824
:10236000FFF74CFF00BF0837BD4680BD80B586B083
:1023700000AF0346B9607A60FB7300237B61FFF70F
:1023800061FF78617A68B9687869FFF7B1FF024642
:1023900097F90F3011461846FFF780FF00BF183736
:1023A000BD4680BD80B582B000AF0346FB7197F992
:1023B00007301846FFF754FF00BF0837BD4680BD01
:1023C00080B582B000AF78607B68002B01D101231B
:1023D0000EE07B685B79DBB2002B05D17B680022C5
:1023E0001A717868FEF7F8FE7B6801225A710023A3
:1023F00018460837BD4680BD80B487B000AFF8608E
:10240000B9607A6000233B61FB6802225A710023A5
:102410007B610AE07B699B00BA681A44FB681B6811
:1024200012681A607B6901337B617A697B689A4222
:10243000F0D3FB681B681B683B61FB6801225A7183
:102440003B6918461C37BD465DF8047B70470000A9
:1024500080B586B000AFF860B960C7E900230123FA
:10246000FB75234B1B7E012B01D102233BE0204B4C
:1024700001221A764CF2503000F070F80346FB75DA
:10248000FB7D002B2BD1FB68002B05D13B78194637
:10249000B86800F01BF916E0FB68012B05D13B88FA
:1024A0001946B86800F0EEF80DE0FB68022B05D184
:1024B0003B681946B86800F0C3F804E0D7E9002388
:1024C000B86800F08BF84CF2503000F047F8034643
:1024D000FB75084B1B69074A23F001031361044B8A
:1024E00000221A76FB7D18461837BD4680BD00BF16
:1024F0007C020020003C024080B483B000AF002387
:10250000FB710B4B1B69002B0BDA094B094A5A6014
:10251000074B094A5A60064B1B69002B01DA01235D
:10252000FB71FB7918460C37BD465DF8047B70479C
:10253000003C024023016745AB89EFCD80B400AF7A
:10254000054B1B69044A43F00043136100231846FE
:10255000BD465DF8047B7047003C024080B584B006
:1025600000AF78600023FB601A4B0022DA61FFF7AE
:1025700039FEF86010E07B68B3F1FF3F0CD07B6858
:10258000002B07D0FFF72EFE0246FB68D31A7A68AD
:102590009A4201D2032319E00F4BDB6803F4803326
:1025A000002BE8D10C4BDB6803F00103002B02D0B9
:1025B000094B0122DA60084BDB6803F4F973002B46
:1025C00003D000F0A5F8012300E0002318461037DF
:1025D000BD4680BD7C020020003C024080B485B036
:1025E00000AFF860C7E90023144B1B69134A23F4BA
:1025F00040731361114B1B69104A43F4407313611C
:102600000E4B1B690D4A43F001031361FB683A68E6
:102610001A60BFF36F8F00BFD7E900014FF00002CF
:102620004FF000030A000023F968043113460B60E1
:1026300000BF1437BD465DF8047B7047003C024084
:1026400080B483B000AF786039600D4B1B690C4AD1
:1026500023F4407313610A4B1B69094A43F4007366
:102660001361074B1B69064A43F0010313617B6842
:102670003A681A6000BF0C37BD465DF8047B7047AE
:10268000003C024080B483B000AF78600B467B8092
:102690000D4B1B690C4A23F4407313610A4B1B69F1
:1026A000094A43F480731361074B1B69064A43F0E0
:1026B000010313617B687A881A8000BF0C37BD461E
:1026C0005DF8047B704700BF003C024080B483B0DB
:1026D00000AF78600B46FB700C4B1B690B4A23F470
:1026E00040731361094B094A1B691361074B1B694E
:1026F000064A43F0010313617B68FA781A7000BF41
:102700000C37BD465DF8047B704700BF003C0240BB
:1027100080B400AF2F4BDB6803F01003002B08D010
:102720002D4BDB6943F010032B4AD361294B102258
:10273000DA60284BDB6803F02003002B08D0264B1F
:10274000DB6943F00803244AD361224B2022DA607C
:10275000204BDB6803F04003002B08D01E4BDB69E5
:1027600043F004031C4AD3611A4B4022DA60194B30
:10277000DB6803F08003002B08D0174BDB6943F0C4
:102780000203154AD361134B8022DA60114BDB68D8
:1027900003F48073002B09D00F4BDB6943F0010376
:1027A0000D4AD3610B4B4FF48072DA60094BDB6842
:1027B00003F00203002B08D0074BDB6943F0200332
:1027C000054AD361034B0222DA6000BFBD465DF8C3
:1027D000047B7047003C02407C02002080B584B03E
:1027E00000AF786039600123FB730023BB60314B7D
:1027F0001B7E012B01D1022358E02E4B01221A76B9
:102800004CF25030FFF7AAFE0346FB73FB7B002B14
:1028100048D13B684FF0FF321A607B681B68012B80
:1028200015D17B681B69DAB27B685B681946104674
:1028300000F068F84CF25030FFF790FE0346FB734F
:102840001D4B1B691C4A23F00403136128E07B68BD
:102850009B68BB601CE07B681B69DBB21946B868EB
:1028600000F074F84CF25030FFF778FE0346FB732B
:10287000114B1B69104A23F0FA031361FB7B002BF9
:1028800003D03B68BA681A600AE0BB680133BB60DA
:102890007B68DA687B689B681344BA689A42DAD32B
:1028A00000F0E8F8034B00221A76FB7B184610373D
:1028B000BD4680BD7C020020003C024080B582B055
:1028C00000AF78607B680F221A6000F097F803462B
:1028D0001A467B689A6000F09DF803461A467B68AA
:1028E0001A6100F07BF803461A467B681A7600F0FE
:1028F000B1F803461A467B685A6100BF0837BD46E7
:1029000080BD000080B483B000AF03463960FB7126
:102910000D4B1B690C4A23F4407313610A4B1B696E
:10292000094A43F004031361074B1A69FB791B0240
:102930001343054A43F48033136100BF0C37BD468F
:102940005DF8047B704700BF003C024080B485B056
:1029500000AF78600B46FB700023FB60FB78002B18
:1029600002D10023FB6010E0FB78012B03D14FF470
:102970008073FB6009E0FB78022B03D14FF40073F6
:10298000FB6002E04FF44073FB60134B1B69124A7B
:1029900023F440731361104B1A690F49FB6813430A
:1029A0000B610D4B1B690C4A23F0F80313610A4BB2
:1029B0001A697B68DB001343074A43F00203136183
:1029C000054B1B69044A43F48033136100BF14377D
:1029D000BD465DF8047B7047003C024080B400AF08
:1029E000054B5B69DBB223F01F03DBB21846BD4623
:1029F0005DF8047B704700BF003C024080B400AF2C
:102A0000034B1B889BB21846BD465DF8047B70479C
:102A1000163C024080B483B000AFAA23FB710C4B7C
:102A20001B78DBB2CC2B02D1CC23FB7109E0084B25
:102A30001B78DBB2AA2B02D1AA23FB7101E055233C
:102A4000FB71FB7918460C37BD465DF8047B704777
:102A5000153C024080B400AF054B1B78DBB203F09D
:102A60000C03DBB21846BD465DF8047B704700BF1F
:102A7000143C024080B400AF204B1B6803F4007389
:102A8000002B17D01D4B1B681C4A23F400731360E6
:102A90001A4B1B68194A43F400631360174B1B68F9
:102AA000164A23F400631360144B1B68134A43F463
:102AB00000731360114B1B6803F48063002B17D065
:102AC0000E4B1B680D4A23F4806313600B4B1B688D
:102AD0000A4A43F480531360084B1B68074A23F4E7
:102AE00080531360054B1B68044A43F480631360F2
:102AF00000BFBD465DF8047B704700BF003C02404C
:102B000080B489B000AF7860396000237B61002316
:102B10003B610023BB610023FB6159E10122FB699A
:102B200002FA03F37B613B681B687A6913403B61DF
:102B30003A697B699A4240F048813B685B6803F0E0
:102B40000303012B05D03B685B6803F00303022BF2
:102B500030D17B689B68BB61FB695B00032202FA92
:102B600003F3DB43BA691340BB613B68DA68FB6976
:102B70005B0002FA03F3BA691343BB617B68BA696D
:102B80009A607B685B68BB610122FB6902FA03F310
:102B9000DB43BA691340BB613B685B681B0903F008
:102BA0000102FB6902FA03F3BA691343BB617B6854
:102BB000BA695A603B685B6803F00303032B17D0C4
:102BC0007B68DB68BB61FB695B00032202FA03F3ED
:102BD000DB43BA691340BB613B689A68FB695B00E1
:102BE00002FA03F3BA691343BB617B68BA69DA601E
:102BF0003B685B6803F00303022B23D1FB69DA080F
:102C00007B68083253F82230BB61FB6903F007038D
:102C10009B000F2202FA03F3DB43BA691340BB6146
:102C20003B681A69FB6903F007039B0002FA03F390
:102C3000BA691343BB61FB69DA087B680832B9697A
:102C400043F822107B681B68BB61FB695B000322B1
:102C500002FA03F3DB43BA691340BB613B685B686C
:102C600003F00302FB695B0002FA03F3BA69134342
:102C7000BB617B68BA691A603B685B6803F44033E8
:102C8000002B00F0A2800023FB60574B5B6C564A80
:102C900043F480435364544B5B6C03F48043FB6008
:102CA000FB68524AFB699B08023352F82330BB6130
:102CB000FB6903F003039B000F2202FA03F3DB43DB
:102CC000BA691340BB617B68494A934219D07B685B
:102CD000484A934213D07B68474A93420DD07B68A1
:102CE000464A934207D07B68454A934201D1042368
:102CF00008E0072306E0032304E0022302E00123A7
:102D000000E00023FA6902F0030292009340BA69DE
:102D10001343BB613549FB699B080233BA6941F82B
:102D20002320384B9B68BB613B69DB43BA69134086
:102D3000BB613B685B6803F48013002B03D0BA6966
:102D40003B691343BB612F4ABB6993602D4BDB6822
:102D5000BB613B69DB43BA691340BB613B685B689D
:102D600003F40013002B03D0BA693B691343BB6122
:102D7000244ABB69D360234B5B68BB613B69DB437F
:102D8000BA691340BB613B685B6803F40033002BF6
:102D900003D0BA693B691343BB611A4ABB695360EC
:102DA000184B1B68BB613B69DB43BA691340BB61CD
:102DB0003B685B6803F48033002B03D0BA693B693E
:102DC0001343BB610F4ABB691360FB690133FB61AD
:102DD000FB690F2B7FF6A2AE00BF00BF2437BD46B4
:102DE0005DF8047B704700BF0038024000380140A6
:102DF000000002400004024000080240000C0240B3
:102E000000100240003C014080B483B000AF786005
:102E10000B467B8013467B707B78002B03D07A882F
:102E20007B689A6103E07B881A047B689A6100BF23
:102E30000C37BD465DF8047B704780B485B000AFA9
:102E400078600B467B807B685B69FB607A88FB68F7
:102E500013401A04FB68D9437B880B401A437B68F4
:102E60009A6100BF1437BD465DF8047B70470000CF
:102E700080B586B000AF78607B68002B01D101235C
:102E800067E27B681B6803F00103002B75D0884B59
:102E90009B6803F00C03042B0CD0854B9B6803F05C
:102EA0000C03082B12D1824B5B6803F48003B3F54B
:102EB000800F0BD17E4B1B6803F40033002B5BD0DB
:102EC0007B685B68002B57D1012342E27B685B681B
:102ED000B3F5803F06D1764B1B68754A43F48033C7
:102EE00013601DE07B685B68B3F5A02F0CD1704BBD
:102EF0001B686F4A43F4802313606D4B1B686C4A58
:102F000043F4803313600BE0694B1B68684A23F479
:102F100080331360664B1B68654A23F4802313607B
:102F20007B685B68002B13D0FFF75CF9386108E021
:102F3000FFF758F902463B69D31A642B01D90323E2
:102F400007E25B4B1B6803F40033002BF0D014E066
:102F5000FFF748F9386108E0FFF744F902463B699A
:102F6000D31A642B01D90323F3E1514B1B6803F4FB
:102F70000033002BF0D100E000BF7B681B6803F03A
:102F80000203002B63D04A4B9B6803F00C03002B19
:102F90000BD0474B9B6803F00C03082B1CD1444B10
:102FA0005B6803F48003002B16D1414B1B6803F0D0
:102FB0000203002B05D07B68DB68012B01D00123C5
:102FC000C7E13B4B1B6823F0F8027B681B69DB0001
:102FD000374913430B603AE07B68DB68002B20D055
:102FE000344B01221A60FFF7FDF8386108E0FFF763
:102FF000F9F802463B69D31A022B01D90323A8E151
:103000002B4B1B6803F00203002BF0D0284B1B68EE
:1030100023F0F8027B681B69DB00254913430B6032
:1030200015E0244B00221A60FFF7DCF8386108E055
:10303000FFF7D8F802463B69D31A022B01D90323C4
:1030400087E11B4B1B6803F00203002BF0D17B6868
:103050001B6803F00803002B36D07B685B69002BEC
:1030600016D0154B01221A60FFF7BCF8386108E052
:10307000FFF7B8F802463B69D31A022B01D90323A4
:1030800067E10B4B5B6F03F00203002BF0D01BE0FA
:10309000094B00221A60FFF7A5F838610EE0FFF730
:1030A000A1F802463B69D31A022B07D9032350E14A
:1030B0000038024000004742800E4742884B5B6F59
:1030C00003F00203002BEAD17B681B6803F00403C2
:1030D000002B00F097800023FB75814B1B6C03F0E5
:1030E0008053002B0FD10023BB607D4B1B6C7C4AAF
:1030F00043F0805313647A4B1B6C03F08053BB6026
:10310000BB680123FB75774B1B6803F48073002BAE
:1031100018D1744B1B68734A43F480731360FFF734
:1031200061F8386108E0FFF75DF802463B69D31AA1
:10313000022B01D903230CE16A4B1B6803F4807353
:10314000002BF0D07B689B68012B06D1644B1B6F72
:10315000634A43F0010313671CE07B689B68052BFF
:103160000CD15F4B1B6F5E4A43F0040313675C4B4B
:103170001B6F5B4A43F0010313670BE0584B1B6F57
:10318000574A23F001031367554B1B6F544A23F032
:10319000040313677B689B68002B15D0FFF722F8A8
:1031A00038610AE0FFF71EF802463B69D31A41F284
:1031B0008832934201D90323CBE0494B1B6F03F0C4
:1031C0000203002BEED014E0FFF70CF838610AE0A0
:1031D000FFF708F802463B69D31A41F2883293425E
:1031E00001D90323B5E03E4B1B6F03F00203002B14
:1031F000EED1FB7D012B05D1394B1B6C384A23F0F6
:10320000805313647B689B69002B00F0A180344BD2
:103210009B6803F00C03082B5CD07B689B69022B36
:1032200041D1314B00221A60FEF7DCFF386108E023
:10323000FEF7D8FF02463B69D31A022B01D90323BC
:1032400087E0274B1B6803F00073002BF0D17B68ED
:10325000DA697B681B6A1A437B685B6A9B011A43C5
:103260007B689B6A5B08013B1B041A437B68DB6A33
:103270001B061B4913434B601B4B01221A60FEF7D0
:10328000B1FF386108E0FEF7ADFF02463B69D31A93
:10329000022B01D903235CE0114B1B6803F0007380
:1032A000002BF0D054E0104B00221A60FEF79AFF7A
:1032B000386108E0FEF796FF02463B69D31A022BFD
:1032C00001D9032345E0064B1B6803F00073002B74
:1032D000F0D13DE07B689B69012B07D1012338E0E9
:1032E0000038024000700040600047421B4B5B68A2
:1032F000FB607B689B69012B28D0FB6803F480028C
:103300007B68DB699A4221D1FB6803F03F027B684E
:103310001B6A9A421AD1FA6847F6C07313407A685A
:10332000526A9201934211D1FB6803F440327B68E8
:103330009B6A5B08013B1B049A4207D1FB6803F0C0
:1033400070627B68DB6A1B069A4201D0012300E0B1
:10335000002318461837BD4680BD00BF0038024024
:1033600080B584B000AF786039607B68002B01D1F4
:103370000123CCE0684B1B6803F007033A689A42CC
:103380000CD9654B3A68D2B21A70634B1B6803F0D4
:1033900007033A689A4201D00123B8E07B681B68B2
:1033A00003F00203002B20D07B681B6803F00403AA
:1033B000002B05D0594B9B68584A43F4E053936067
:1033C0007B681B6803F00803002B05D0534B9B68F8
:1033D000524A43F460439360504B9B6823F0F002E1
:1033E0007B689B684D4913438B607B681B6803F0C7
:1033F0000103002B44D07B685B68012B07D1474B4E
:103400001B6803F40033002B19D101237FE07B6894
:103410005B68022B03D07B685B68032B07D13F4BB3
:103420001B6803F00073002B09D101236FE03B4BB5
:103430001B6803F00203002B01D1012367E0374B27
:103440009B6823F003027B685B68344913438B60FD
:10345000FEF7C8FEF8600AE0FEF7C4FE0246FB680D
:10346000D31A41F28832934201D903234FE02B4B08
:103470009B6803F00C027B685B689B009A42EBD16F
:10348000254B1B6803F007033A689A420CD2224B83
:103490003A68D2B21A70204B1B6803F007033A68EF
:1034A0009A4201D0012332E07B681B6803F00403D9
:1034B000002B08D0194B9B6823F4E0527B68DB6833
:1034C000164913438B607B681B6803F00803002BCD
:1034D00009D0124B9B6823F460427B681B69DB00B8
:1034E0000E4913438B6000F021F802460B4B9B689A
:1034F0001B0903F00F030A49CB5C22FA03F3094AC4
:103500001360094B1B681846FEF75CFA0023184647
:103510001037BD4680BD00BF003C0240003802406D
:10352000608E000800000020040000202DE9B04F4C
:1035300090B000AF00237B630023FB6300233B6359
:103540000023BB63594B9B6803F00C03082B0DD081
:10355000082B00F2A180002B02D0042B03D09BE0AB
:10356000534BBB639BE0534BBB6398E04F4B5B6893
:1035700003F03F037B634D4B5B6803F48003002B38
:1035800028D04A4B5B689B0900223B627A623B6A07
:10359000C3F308000021474B03FB01F2002300FBAB
:1035A00003F31344434AA0FB0212FA620A46BA62CA
:1035B000FA6A1344FB627B6B0022BB61FA61D7E9B4
:1035C0000623D7E90A01FDF711F902460B46134617
:1035D000FB6353E0354B5B689B0900223B617A61DA
:1035E0003B69C3F3080A4FF0000B52465B464FF0AD
:1035F00000004FF00001590141EAD261500102463A
:103600000B46B2EB0A0863EB0B094FF000024FF0D8
:1036100000034FEA891343EA98634FEA8812B2EB3A
:10362000080463EB09054FF000024FF00003EB00C4
:1036300043EA5473E20014461D4614EB0A033B6050
:1036400045EB0B037B604FF000024FF00003D7E91E
:10365000004529468B02214643EA915321468A02BE
:10366000104619467B6B0022BB60FA60D7E9022343
:10367000FDF7BCF802460B461346FB630B4B5B6839
:103680001B0C03F0030301335B003B63FA6B3B6BE2
:10369000B2FBF3F3BB6302E0054BBB6300BFBB6B44
:1036A00018464037BD46BDE8B08F00BF0038024025
:1036B0000024F40040787D0180B400AF034B1B6808
:1036C0001846BD465DF8047B704700BF000000202F
:1036D00080B500AFFFF7F0FF0246054B9B689B0AE1
:1036E00003F007030349CB5C22FA03F3184680BDBD
:1036F00000380240708E000880B500AFFFF7DCFF95
:103700000246054B9B685B0B03F007030349CB5C48
:1037100022FA03F3184680BD00380240708E00087C
:1037200080B483B000AF786039607B680F221A6084
:10373000124B9B6803F003027B685A600F4B9B6837
:1037400003F0F0027B689A600C4B9B6803F4E05234
:103750007B68DA60094B9B68DB0803F4E0527B6806
:103760001A61074B1B6803F007023B681A6000BF31
:103770000C37BD465DF8047B704700BF003802403F
:10378000003C024080B582B000AF78607B68002BBF
:1037900001D1012341E07B6893F83D30DBB2002B7F
:1037A00006D17B68002283F83C207868FEF71CFB7A
:1037B0007B68022283F83D207B681A687B680433AB
:1037C0001946104600F0AAFD7B68012283F84620C6
:1037D0007B68012283F83E207B68012283F83F202A
:1037E0007B68012283F840207B68012283F8412016
:1037F0007B68012283F842207B68012283F8432002
:103800007B68012283F844207B68012283F84520ED
:103810007B68012283F83D20002318460837BD4607
:1038200080BD000080B485B000AF78607B6893F8FD
:103830003D30DBB2012B01D0012344E07B68022242
:1038400083F83D207B681B68DA687B681B6842F060
:103850000102DA607B681B681E4A934218D07B68BD
:103860001B68B3F1804F13D07B681B681A4A9342E0
:103870000ED07B681B68194A934209D07B681B688D
:10388000174A934204D07B681B68164A934211D1B1
:103890007B681B689B6803F00703FB60FB68062BD3
:1038A00010D07B681B681A687B681B6842F00102B5
:1038B0001A6007E07B681B681A687B681B6842F027
:1038C00001021A60002318461437BD465DF8047BD8
:1038D000704700BF000001400004004000080040A5
:1038E000000C00400040014080B582B000AF78601D
:1038F0007B68002B01D1012341E07B6893F83D30C8
:10390000DBB2002B06D17B68002283F83C2078686C
:10391000FEF748FA7B68022283F83D207B681A682C
:103920007B6804331946104600F0F8FC7B680122DE
:1039300083F846207B68012283F83E207B680122C1
:1039400083F83F207B68012283F840207B680122B6
:1039500083F841207B68012283F842207B680122A2
:1039600083F843207B68012283F844207B6801228E
:1039700083F845207B68012283F83D200023184608
:103980000837BD4680BD000080B584B000AF7860C8
:1039900039603B68002B09D17B6893F83E30DBB27D
:1039A000012B14BF01230023DBB222E03B68042B70
:1039B00009D17B6893F83F30DBB2012B14BF0123A0
:1039C0000023DBB215E03B68082B09D17B6893F834
:1039D0004030DBB2012B14BF01230023DBB208E02F
:1039E0007B6893F84130DBB2012B14BF0123002325
:1039F000DBB2002B01D0012368E03B68002B04D12F
:103A00007B68022283F83E2013E03B68042B04D13C
:103A10007B68022283F83F200BE03B68082B04D12F
:103A20007B68022283F8402003E07B68022283F84F
:103A300041207B681B6801223968184600F0A4FF0A
:103A40007B681B68234A934207D17B681B685A6CCA
:103A50007B681B6842F400425A647B681B681D4AFD
:103A6000934218D07B681B68B3F1804F13D07B68FA
:103A70001B68194A93420ED07B681B68174A934211
:103A800009D07B681B68164A934204D07B681B6888
:103A9000144A934211D17B681B689B6803F00703AB
:103AA000FB60FB68062B10D07B681B681A687B687C
:103AB0001B6842F001021A6007E07B681B681A6805
:103AC0007B681B6842F001021A6000231846103719
:103AD000BD4680BD000001400004004000080040D9
:103AE000000C00400040014080B582B000AF78601B
:103AF0007B68002B01D1012341E07B6893F83D30C6
:103B0000DBB2002B06D17B68002283F83C2078686A
:103B1000FEF7FAF87B68022283F83D207B681A687A
:103B20007B6804331946104600F0F8FB7B680122DD
:103B300083F846207B68012283F83E207B680122BF
:103B400083F83F207B68012283F840207B680122B4
:103B500083F841207B68012283F842207B680122A0
:103B600083F843207B68012283F844207B6801228C
:103B700083F845207B68012283F83D200023184606
:103B80000837BD4680BD000080B584B000AF7860C6
:103B900039600023FB733B68002B04D17B6893F8EA
:103BA0003E30DBB213E03B68042B04D17B6893F812
:103BB0003F30DBB20BE03B68082B04D17B6893F805
:103BC0004030DBB203E07B6893F84130DBB2BB737B
:103BD0003B68002B04D17B6893F84230DBB213E0E2
:103BE0003B68042B04D17B6893F84330DBB20BE0D5
:103BF0003B68082B04D17B6893F84430DBB203E0C8
:103C00007B6893F84530DBB27B73BB7B012B02D121
:103C10007B7B012B01D00123C2E03B68002B04D148
:103C20007B68022283F83E2013E03B68042B04D11A
:103C30007B68022283F83F200BE03B68082B04D10D
:103C40007B68022283F8402003E07B68022283F82D
:103C500041203B68002B04D17B68022283F842207C
:103C600013E03B68042B04D17B68022283F84320D5
:103C70000BE03B68082B04D17B68022283F84420C8
:103C800003E07B68022283F845203B680C2B41D877
:103C900001A252F823F000BFCD3C0008153D0008FA
:103CA000153D0008153D0008DF3C0008153D0008E3
:103CB000153D0008153D0008F13C0008153D0008C1
:103CC000153D0008153D0008033D00087B681B6892
:103CD000DA687B681B6842F00202DA601DE07B68EC
:103CE0001B68DA687B681B6842F00402DA6014E043
:103CF0007B681B68DA687B681B6842F00802DA6040
:103D00000BE07B681B68DA687B681B6842F0100276
:103D1000DA6002E00123FB7300BFFB7B002B3ED186
:103D20007B681B6801223968184600F02DFE7B680D
:103D30001B681D4A934218D07B681B68B3F1804F03
:103D400013D07B681B68194A93420ED07B681B68AE
:103D5000174A934209D07B681B68164A934204D0E5
:103D60007B681B68144A934211D17B681B689B686F
:103D700003F00703BB60BB68062B10D07B681B6891
:103D80001A687B681B6842F001021A6007E07B68D2
:103D90001B681A687B681B6842F001021A60FB7B93
:103DA00018461037BD4680BD0000014000040040A9
:103DB00000080040000C00400040014080B584B085
:103DC00000AF78607B681B68DB68FB607B681B6802
:103DD0001B69BB60BB6803F00203002B20D0FB68AB
:103DE00003F00203002B1BD07B681B686FF00202FC
:103DF0001A617B6801221A777B681B689B6903F054
:103E00000303002B03D07868FEF772F805E07868AA
:103E100000F066FA786800F06DFA7B6800221A7785
:103E2000BB6803F00403002B20D0FB6803F00403FD
:103E3000002B1BD07B681B686FF004021A617B6843
:103E400002221A777B681B689B6903F44073002B7E
:103E500003D07868FEF74CF805E0786800F040FA87
:103E6000786800F047FA7B6800221A77BB6803F095
:103E70000803002B20D0FB6803F00803002B1BD0A5
:103E80007B681B686FF008021A617B6804221A774E
:103E90007B681B68DB6903F00303002B03D07868A1
:103EA000FEF726F805E0786800F01AFA786800F066
:103EB00021FA7B6800221A77BB6803F01003002BFD
:103EC00020D0FB6803F01003002B1BD07B681B681D
:103ED0006FF010021A617B6808221A777B681B68F2
:103EE000DB6903F44073002B03D07868FEF700F819
:103EF00005E0786800F0F4F9786800F0FBF97B6879
:103F000000221A77BB6803F00103002B0CD0FB687A
:103F100003F00103002B07D07B681B686FF00102E0
:103F20001A617868FDF7C8FBBB6803F08003002BBB
:103F30000CD0FB6803F08003002B07D07B681B6864
:103F40006FF080021A61786800F0BCFDBB6803F076
:103F50004003002B0CD0FB6803F04003002B07D07C
:103F60007B681B686FF040021A61786800F0CCF93A
:103F7000BB6803F02003002B0CD0FB6803F0200388
:103F8000002B07D07B681B686FF020021A617868ED
:103F900000F08EFD00BF1037BD4680BD80B586B0F5
:103FA00000AFF860B9607A600023FB75FB6893F896
:103FB0003C30012B01D1022388E0FB68012283F809
:103FC0003C207B68002B1BD1FB681868BB68196814
:103FD000BB685A68BB68DB6800F0B8FBFB681B680D
:103FE0009A69FB681B6822F00C029A61FB681B68E7
:103FF0009969BB689A68FB681B680A439A6160E02C
:104000007B68042B1CD1FB681868BB681968BB6807
:104010005A68BB68DB6800F001FCFB681B689A69A2
:10402000FB681B6822F440629A61FB681B6899690F
:10403000BB689B681A02FB681B680A439A6140E0F0
:104040007B68082B1BD1FB681868BB681968BB68C4
:104050005A68BB68DB6800F01EFCFB681B68DA6905
:10406000FB681B6822F00C02DA61FB681B68D969E7
:10407000BB689A68FB681B680A43DA6121E07B68C9
:104080000C2B1CD1FB681868BB681968BB685A68A0
:10409000BB68DB6800F03BFCFB681B68DA69FB6807
:1040A0001B6822F44062DA61FB681B68D969BB684F
:1040B0009B681A02FB681B680A43DA6101E001236E
:1040C000FB75FB68002283F83C20FB7D18461837FF
:1040D000BD4680BD80B586B000AFF860B9607A603B
:1040E0000023FB75FB6893F83C30012B01D10223C0
:1040F000AEE0FB68012283F83C207B680C2B00F2C9
:104100009F8001A252F823F03D410008414200087F
:1041100041420008414200087D4100084142000838
:104120004142000841420008BF41000841420008E6
:104130004142000841420008FF410008FB681B683B
:10414000B968184600F076F9FB681B689A69FB6845
:104150001B6842F008029A61FB681B689A69FB6859
:104160001B6822F004029A61FB681B689969BB68AE
:104170001A69FB681B680A439A6164E0FB681B6864
:10418000B968184600F0BCF9FB681B689A69FB68BF
:104190001B6842F400629A61FB681B689A69FB68BD
:1041A0001B6822F480629A61FB681B689969BB688E
:1041B0001B691A02FB681B680A439A6143E0FB68AB
:1041C0001B68B968184600F007FAFB681B68DA69D3
:1041D000FB681B6842F00802DA61FB681B68DA6959
:1041E000FB681B6822F00402DA61FB681B68D9696E
:1041F000BB681A69FB681B680A43DA6123E0FB6845
:104200001B68B968184600F051FAFB681B68DA6948
:10421000FB681B6842F40062DA61FB681B68DA69BC
:10422000FB681B6822F48062DA61FB681B68D9694D
:10423000BB681B691A02FB681B680A43DA6102E06B
:104240000123FB7500BFFB68002283F83C20FB7D47
:1042500018461837BD4680BD80B485B000AF786081
:1042600039600023FB603B680C2B31D801A252F867
:1042700023F000BFA9420008D1420008D142000843
:10428000D1420008B3420008D1420008D1420008E0
:10429000D1420008BD420008D1420008D1420008C6
:1042A000D1420008C74200087B681B685B6BFB605B
:1042B0000FE07B681B689B6BFB600AE07B681B68F8
:1042C000DB6BFB6005E07B681B681B6CFB6000E040
:1042D00000BFFB6818461437BD465DF8047B704785
:1042E00080B483B000AF786000BF0C37BD465DF886
:1042F000047B704780B483B000AF786000BF0C3798
:10430000BD465DF8047B704780B483B000AF786031
:1043100000BF0C37BD465DF8047B704780B485B0A4
:1043200000AF786039607B681B68FB607B683A4A45
:1043300093420FD07B68B3F1804F0BD07B68374A34
:10434000934207D07B68364A934203D07B68354A54
:10435000934208D1FB6823F07003FB603B685B6805
:10436000FA681343FB607B682B4A93421BD07B683F
:10437000B3F1804F17D07B68284A934213D07B68F3
:10438000274A93420FD07B68264A93420BD07B6822
:10439000254A934207D07B68244A934203D07B6826
:1043A000234A934208D1FB6823F44073FB603B68C7
:1043B000DB68FA681343FB60FB6823F080023B680C
:1043C0005B691343FB607B68FA681A603B689A6814
:1043D0007B68DA623B681A687B689A627B680E4A7F
:1043E000934203D13B681A697B681A637B68012298
:1043F0005A617B681B6903F00103012B05D17B68BF
:104400001B6923F001027B681A6100BF1437BD46A7
:104410005DF8047B704700BF0000014000040040CD
:1044200000080040000C00400040014000440140F2
:104430000048014080B487B000AF786039607B6885
:104440001B6A7B617B681B6A23F001027B681A622E
:104450007B685B683B617B689B69FB60FB6823F062
:104460007003FB60FB6823F00303FB603B681B6881
:10447000FA681343FB607B6923F002037B613B68AE
:104480009B687A6913437B617B681C4A93420CD119
:104490007B6923F008037B613B68DB687A6913431F
:1044A0007B617B6923F004037B617B68134A934241
:1044B00011D13B6923F480733B613B6923F40073A2
:1044C0003B613B685B693A6913433B613B689B69AD
:1044D0003A6913433B617B683A695A607B68FA68C2
:1044E0009A613B685A687B685A637B687A691A628A
:1044F00000BF1C37BD465DF8047B704700000140DB
:1045000080B487B000AF786039607B681B6A7B61DC
:104510007B681B6A23F010027B681A627B685B6809
:104520003B617B689B69FB60FB6823F4E043FB60B5
:10453000FB6823F44073FB603B681B681B02FA684E
:104540001343FB607B6923F020037B613B689B681E
:104550001B017A6913437B617B681E4A93420DD12C
:104560007B6923F080037B613B68DB681B017A6910
:1045700013437B617B6923F040037B617B68154AB1
:10458000934213D13B6923F480633B613B6923F47D
:1045900000633B613B685B699B003A6913433B6185
:1045A0003B689B699B003A6913433B617B683A69AE
:1045B0005A607B68FA689A613B685A687B689A63BC
:1045C0007B687A691A6200BF1C37BD465DF8047BC0
:1045D000704700BF0000014080B487B000AF786032
:1045E00039607B681B6A7B617B681B6A23F480727D
:1045F0007B681A627B685B683B617B68DB69FB6098
:10460000FB6823F07003FB60FB6823F00303FB608F
:104610003B681B68FA681343FB607B6923F40073F3
:104620007B613B689B681B027A6913437B617B68F3
:104630001D4A93420DD17B6923F400637B613B6883
:10464000DB681B027A6913437B617B6923F4806317
:104650007B617B68144A934213D13B6923F48053F6
:104660003B613B6923F400533B613B685B691B0181
:104670003A6913433B613B689B691B013A691343E9
:104680003B617B683A695A607B68FA68DA613B682B
:104690005A687B68DA637B687A691A6200BF1C37E4
:1046A000BD465DF8047B70470000014080B487B0D0
:1046B00000AF786039607B681B6A3B617B681B6A6E
:1046C00023F480527B681A627B685B687B617B683D
:1046D000DB69FB60FB6823F4E043FB60FB6823F4C9
:1046E0004073FB603B681B681B02FA681343FB6066
:1046F0003B6923F400533B613B689B681B033A69A9
:1047000013433B617B68104A934209D17B6923F4D0
:1047100080437B613B685B699B017A6913437B61E2
:104720007B687A695A607B68FA68DA613B685A6824
:104730007B681A647B683A691A6200BF1C37BD4601
:104740005DF8047B704700BF0000014080B487B073
:1047500000AFF860B9607A603B60FB681B6A3B6140
:10476000FB681B6A23F00102FB681A62FB689B6905
:104770007B61FB68244A934213D0FB68B3F1804FFE
:104780000FD0FB68214A93420BD0FB68204A93422A
:1047900007D0FB681F4A934203D0FB681E4A93422E
:1047A00001D1012300E00023002B08D07B6923F016
:1047B00003037B617A697B6813437B6103E07B6958
:1047C00043F001037B617B6923F0F0037B613B686D
:1047D0001B01DBB27A6913437B613B6923F00A0357
:1047E0003B61BB6803F00A033A6913433B61FB6812
:1047F0007A699A61FB683A691A6200BF1C37BD4644
:104800005DF8047B704700BF0000014000040040D9
:1048100000080040000C00400040014080B487B018
:1048200000AFF860B9607A603B60FB681B6A7B612F
:10483000FB681B6A23F01002FB681A62FB689B6925
:104840003B613B6923F440733B617B681B023A691F
:1048500013433B613B6923F470433B613B681B039B
:104860009BB23A6913433B617B6923F0A0037B61F0
:10487000BB681B0103F0A0037A6913437B61FB68EB
:104880003A699A61FB687A691A6200BF1C37BD46B3
:104890005DF8047B704780B487B000AFF860B96002
:1048A0007A603B60FB681B6A7B61FB681B6A23F4D0
:1048B0008072FB681A62FB68DB693B613B6923F02D
:1048C00003033B613A697B6813433B613B6923F017
:1048D000F0033B613B681B01DBB23A6913433B6168
:1048E0007B6923F420637B61BB681B0203F42063B4
:1048F0007A6913437B61FB683A69DA61FB687A691C
:104900001A6200BF1C37BD465DF8047B704780B457
:1049100087B000AFF860B9607A603B60FB681B6AE3
:104920007B61FB681B6A23F48052FB681A62FB6898
:10493000DB693B613B6923F440733B617B681B028D
:104940003A6913433B613B6923F470433B613B6825
:104950001B039BB23A6913433B617B6923F42043F9
:104960007B61BB681B0303F420437A6913437B61BB
:10497000FB683A69DA61FB687A691A6200BF1C3722
:10498000BD465DF8047B704780B487B000AFF86027
:10499000B9607A60BB6803F01F03012202FA03F3D7
:1049A0007B61FB681A6A7B69DB431A40FB681A6209
:1049B000FB681A6ABB6803F01F03796801FA03F306
:1049C0001A43FB681A6200BF1C37BD465DF8047BC2
:1049D0007047000080B485B000AF786039607B68B4
:1049E00093F83C30012B01D1022350E07B68012277
:1049F00083F83C207B68022283F83D207B681B689B
:104A00005B68FB607B681B689B68BB60FB6823F08E
:104A10007003FB603B681B68FA681343FB607B68AC
:104A20001B68FA685A607B681B681C4A934218D05E
:104A30007B681B68B3F1804F13D07B681B68184AF2
:104A400093420ED07B681B68164A934209D07B685C
:104A50001B68154A934204D07B681B68134A934233
:104A60000CD1BB6823F08003BB603B685B68BA680D
:104A70001343BB607B681B68BA689A607B6801223D
:104A800083F83D207B68002283F83C2000231846F1
:104A90001437BD465DF8047B704700BF000001403D
:104AA0000004004000080040000C004000400140AD
:104AB00080B483B000AF786000BF0C37BD465DF8AE
:104AC000047B704780B483B000AF786000BF0C37C0
:104AD000BD465DF8047B704780B582B000AF78605A
:104AE0007B68002B01D1012342E07B6893F84130C1
:104AF000DBB2002B06D17B68002283F84020786867
:104B0000FDF7C8FA7B68242283F841207B681B6884
:104B1000DA687B681B6822F40052DA60786800F07B
:104B200009FA7B681B681A697B681B6822F490424B
:104B30001A617B681B685A697B681B6822F02A022D
:104B40005A617B681B68DA687B681B6842F4005214
:104B5000DA607B6800225A647B68202283F8412057
:104B60007B68202283F842207B6800225A6300235E
:104B700018460837BD4680BD80B58AB002AFF860E0
:104B8000B9603B601346FB8000237B61FB6893F8B0
:104B90004130DBB2202B75D1BB68002B02D0FB88E3
:104BA000002B01D101236EE0FB6800225A64FB68F0
:104BB000212283F84120FDF715FB7861FB68FA8814
:104BC0009A84FB68FA88DA84FB689B68B3F5805F97
:104BD00008D1FB681B69002B04D10023FB61BB6873
:104BE000BB6103E0BB68FB610023BB612EE03B6857
:104BF00000937B6900228021F86800F0DFF803460B
:104C0000002B05D0FB68202283F8412003233AE0E3
:104C1000FB69002B0BD1BB691B881A46FB681B681C
:104C2000C2F308025A60BB690233BB6107E0FB694B
:104C30001A78FB681B685A60FB690133FB61FB68EB
:104C4000DB8C9BB2013B9AB2FB68DA84FB68DB8C9D
:104C50009BB2002BCBD13B6800937B6900224021A3
:104C6000F86800F0ABF80346002B05D0FB68202263
:104C700083F84120032306E0FB68202283F84120CB
:104C8000002300E0022318462037BD4680BD80B5D2
:104C90008AB002AFF860B9603B601346FB80002326
:104CA0007B61FB6893F84230DBB2202B40F08180BF
:104CB000BB68002B02D0FB88002B01D1012379E0D7
:104CC000FB6800225A64FB68222283F84220FB68BA
:104CD00000221A63FDF786FA7861FB68FA889A85E4
:104CE000FB68FA88DA85FB689B68B3F5805F08D1BA
:104CF000FB681B69002B04D10023FB61BB68BB610F
:104D000003E0BB68FB610023BB6147E03B680093A5
:104D10007B6900222021F86800F050F80346002B40
:104D200005D0FB68202283F84220032342E0FB6980
:104D3000002B0CD1FB681B685B689BB2C3F30803B4
:104D40009AB2BB691A80BB690233BB611FE0FB6882
:104D50009B68B3F5805F07D0FB689B68002B0AD186
:104D6000FB681B69002B06D1FB681B685B68DAB225
:104D7000FB691A7008E0FB681B685B68DBB203F034
:104D80007F03DAB2FB691A70FB690133FB61FB68D0
:104D9000DB8D9BB2013B9AB2FB68DA85FB68DB8D49
:104DA0009BB2002BB2D1FB68202283F84220002363
:104DB00000E0022318462037BD4680BD80B586B08E
:104DC00000AFF860B9603B601346FB713BE03B6AA3
:104DD000B3F1FF3F37D0FDF705FA02463B68D31A1F
:104DE0003A6A9A4202D33B6A002B01D103233AE08C
:104DF000FB681B68DB6803F00403002B23D0BB684F
:104E0000802B20D0BB68402B1DD0FB681B681B6823
:104E100003F00803082B16D100237B61FB681B6895
:104E20001B687B61FB681B685B687B617B69F8685A
:104E300000F01DF8FB6808225A64FB68002283F822
:104E4000402001230FE0FB681B681A68BB68134011
:104E5000BA689A420CBF01230023DBB21A46FB79E1
:104E60009A42B4D0002318461837BD4680BD80B49E
:104E700095B000AF78607B681B680C337B637B6BFD
:104E800053E8003F3B633B6B23F49073FB647B6808
:104E90001B680C33FA6C3A64FB63F96B3A6C41E8BB
:104EA0000023BB63BB6B002BE5D17B681B6814330D
:104EB0003B623B6A53E8003FFB61FB6923F001035F
:104EC000BB647B681B681433BA6CFA62BB62B96A54
:104ED000FA6A41E800237B627B6A002BE5D17B689C
:104EE0001B6B012B19D17B681B680C33FB60FB68C3
:104EF00053E8003FBB60BB6823F010037B647B6812
:104F00001B680C337A6CBA617B617969BA6941E8D4
:104F100000233B613B69002BE5D17B68202283F8AD
:104F200042207B6800221A6300BF5437BD465DF8FB
:104F3000047B70472DE9B04FC0B000AFC7F8F40054
:104F4000D7F8F4301B681B6923F44050D7F8F430CD
:104F5000D968D7F8F4301A6840EA01031361D7F82A
:104F6000F4309A68D7F8F4301B691A43D7F8F43054
:104F70005B691A43D7F8F430DB691343C7F8F8309C
:104F8000D7F8F4301B68DB6823F4164121F00C01DC
:104F9000D7F8F4301A68D7F8F8300B43D360D7F855
:104FA000F4301B685B6923F44070D7F8F4309969DA
:104FB000D7F8F4301A6840EA01035361D7F8F430A7
:104FC0001A688F4B9A4205D0D7F8F4301A688D4B87
:104FD0009A4204D1FEF790FBC7F8FC0003E0FEF70D
:104FE00077FBC7F8FC00D7F8F430DB69B3F5004F66
:104FF00040F00C81D7F8FC300022C7F8E830C7F841
:10500000EC20D7E93A4522462B469118B9655B4119
:10501000FB65D7E91623214612EB0108294643EB2D
:1050200001094FF000024FF000034FEAC90343EAC1
:1050300058734FEAC80290469946234618EB03037B
:10504000C7F8E0302B4649EB0303C7F8E430D7F844
:10505000F4305B680022C7F8D830C7F8DC20D7E905
:1050600036120B46DB183B65134642EB03037B65A8
:10507000D7E91423D7E93801FBF7B8FB02460B4602
:10508000614BA3FB02235B091C01D7F8FC30002213
:10509000C7F8D030C7F8D420D7E9348942464B4608
:1050A0009118B9645B41FB64D7E91223414612EBC6
:1050B000010A494643EB010B4FF000024FF0000399
:1050C0004FEACB0343EA5A734FEACA0292469B4621
:1050D00043461AEB0303C7F8C8304B464BEB0303B8
:1050E000C7F8CC30D7F8F4305B680022C7F8C0307E
:1050F000C7F8C420D7E930120B46DB183B641346CF
:1051000042EB03037B64D7E91023D7E93201FBF7B5
:105110006DFB02460B4611463B4BA3FB01235B098B
:10512000642202FB03F3CB1ADB0003F13202364B9D
:10513000A3FB02235B095B0003F4F8731C44D7F85C
:10514000FC300022C7F8B830C7F8BC20D7E92E8958
:1051500042464B469118B9635B41FB63D7E90E2386
:1051600041465118396349464B417B634FF0000279
:105170004FF00003D7E90CAB5946CB00514643EA48
:1051800051735146CA0010461946034642469B18C1
:10519000C7F8B0304B460A4642EB0303C7F8B430B9
:1051A000D7F8F4305B680022C7F8A830C7F8AC2005
:1051B000D7E92A120B46DB18BB62134642EB030306
:1051C000FB62D7E90A23D7E92C01FBF70FFB024664
:1051D0000B460D4BA3FB02135B09642101FB03F398
:1051E000D31ADB003233084AA2FB03235B0903F026
:1051F0000702D7F8F4301B6822449A6006E100BF2A
:1052000000100140001401401F85EB51D7F8FC301D
:105210000022C7F8A030C7F8A420D7E92889424661
:105220004B46911839625B417B62D7E908234146BE
:105230005418494643EB01054FF000024FF00003BC
:10524000EB0043EA5473E20014461D464346E3185C
:10525000C7F898304B4645EB0303C7F89C30D7F8A6
:10526000F4305B680022C7F89030C7F894204FF004
:1052700000024FF00003D7E9244529468B00214660
:1052800043EA917321468A00D7E92601FBF7AEFA7B
:1052900002460B46604BA3FB02235B091C01D7F8B7
:1052A000FC300022C7F88830C7F88C20D7E9228963
:1052B00042464B469118B9615B41FB61D7E9062331
:1052C00041465118396149464B417B614FF000021C
:1052D0004FF00003D7E904AB5946CB00514643EAEF
:1052E00051735146CA0010461946034642469B1860
:1052F000C7F880304B460A4642EB0303C7F88430B8
:10530000D7F8F4305B680022BB67FA674FF0000201
:105310004FF00003D7E91E8949468B00414643EA16
:10532000917341468A00D7E92001FBF75FFA0246F4
:105330000B461146384BA3FB01235B09642202FB99
:1053400003F3CB1A1B013233334AA2FB03235B095D
:1053500003F0F0031C44D7F8FC3000223B677A6767
:10536000D7E91C8942464B469118B9605B41FB6006
:10537000D7E9022341465118396049464B417B60C9
:105380004FF000024FF00003D7E900AB5946CB00C5
:10539000514643EA51735146CA0010461946034626
:1053A00042469B18BB664B460A4642EB0303FB662C
:1053B000D7F8F4305B6800223B667A664FF0000253
:1053C0004FF00003D7E9188949468B00414643EA6C
:1053D000917341468A00D7E91A01FBF707FA0246A2
:1053E0000B460D4BA3FB02135B09642101FB03F386
:1053F000D31A1B013233084AA2FB03235B0903F0D3
:105400000F02D7F8F4301B6822449A6000BF07F5FA
:105410008077BD46BDE8B08F1F85EB5180B483B067
:1054200000AF03463960FB7197F90730002B0ADBA8
:105430003B68DAB20C4997F907301201D2B20B443B
:1054400083F800230AE03B68DAB20849FB7903F0ED
:105450000F03043B1201D2B20B441A7600BF0C3783
:10546000BD465DF8047B704700E100E000ED00E020
:1054700080B500AF054B1B6802F036FA0346012BDE
:1054800001D003F019F900BF80BD00BF10E000E0BB
:1054900080B500AF00216FF00400FFF7BFFF00BF31
:1054A00080BD000080B483B000AFEFF305833B60A4
:1054B0003B68002B03D06FF005037B600CE00A4BC8
:1054C0001B68002B05D1084B01221A6000237B606A
:1054D00002E04FF0FF337B607B6818460C37BD4617
:1054E0005DF8047B704700BF9C02002080B582B04D
:1054F00000AFEFF305833B603B68002B03D06FF0F8
:1055000005037B6010E00B4B1B68012B09D1FFF7F3
:10551000BFFF084B02221A6001F0C2FD00237B602E
:1055200002E04FF0FF337B607B6818460837BD46CA
:1055300080BD00BF9C02002080B58EB004AFF86033
:10554000B9607A6000233B61EFF305837B617B697F
:10555000002B7ED1FB68002B7BD080233B6218237D
:10556000FB6100237B624FF0FF33BB617B68002B44
:1055700045D07B681B68002B02D07B681B687B6270
:105580007B689B69002B02D07B689B69FB61FB6990
:10559000002B08D0FB69382B05D87B685B6803F0CB
:1055A0000103002B01D0002354E07B685B69002BD2
:1055B00003D07B685B699B083B627B689B68002B20
:1055C0000ED07B68DB68A72B0AD97B681B69002B90
:1055D00006D07B685B69002B02D00123BB6110E021
:1055E0007B689B68002B0CD17B68DB68002B08D1A3
:1055F0007B681B69002B04D10023BB6101E0002301
:10560000BB61BB69012B10D17B681B697A6892680A
:1056100002920193FB690093BB683A6A796AF86861
:1056200001F062FB03463B6113E0BB69002B10D124
:105630003B6A9AB207F110030193FB690093BB68C0
:10564000796AF86801F0ADFB0346012B01D0002315
:105650003B613B6918462837BD4680BD80B584B0A4
:1056600000AF7860EFF30583BB60BB68002B03D00D
:105670006FF00503FB6007E00023FB607B68002BF5
:1056800002D0786801F0D8FCFB6818461037BD4698
:1056900080BD80B58AB002AFF860B9607A6000233F
:1056A000FB61EFF305833B613B69002B75D1FB6820
:1056B000002B72D0BA68FB689A426ED84FF0FF3365
:1056C000BB617B68002B15D07B689B68002B06D0E4
:1056D0007B68DB684F2B02D90123BB610CE07B6840
:1056E0009B68002B08D17B68DB68002B04D100236A
:1056F000BB6101E00023BB61BB69B3F1FF3F4CD04C
:10570000FB68012B28D1BB69012B0AD17B689B6800
:105710000322009200220021012000F070FBF861BA
:1057200005E003220021012000F0E1FBF861FB69A4
:10573000002B22D0BB68002B1FD0002300220021A9
:10574000F86900F09BFC0346012B16D0F86901F0C4
:10575000F7F80023FB6110E0BB69012B08D17B68DF
:105760009B681A46B968F86800F01EFCF86104E00E
:10577000B968F86800F04FFCF861FB69002B0CD0A9
:105780007B68002B03D07B681B687B6101E00023F2
:105790007B617969F86901F01FFAFB6918462037C7
:1057A000BD4680BD80B586B000AF786039607B684B
:1057B0003B6100237B613B69002B03D16FF0030346
:1057C0007B6139E0EFF30583FB60FB68002B22D09F
:1057D0003B68002B03D06FF003037B612CE00023B8
:1057E000BB6007F108031A460021386901F028F868
:1057F0000346012B03D06FF002037B611CE0BB6802
:10580000002B19D00F4B4FF080521A60BFF34F8F0F
:10581000BFF36F8F10E03968386900F011FF03465D
:10582000012B09D03B68002B03D06FF001037B6193
:1058300002E06FF002037B617B6918461837BD46B2
:1058400080BD00BF04ED00E080B586B000AF786099
:105850007B683B6100237B613B69002B03D16FF0C8
:1058600003037B612CE0EFF30583FB60FB68002BF7
:105870001AD00023BB6007F108031946386900F00D
:105880007EFD0346012B03D06FF002037B6117E01E
:10589000BB68002B14D00D4B4FF080521A60BFF341
:1058A0004F8FBFF36F8F0BE0002300220021386978
:1058B00000F0E4FB0346012B02D06FF002037B6192
:1058C0007B6918461837BD4680BD00BF04ED00E077
:1058D00080B58AB002AFF860B9607A600023FB61DE
:1058E000EFF305833B613B69002B5FD1FB68002B25
:1058F0005CD0BB68002B59D04FF0FF33BB617B6895
:10590000002B29D07B689B68002B12D07B68DB685A
:105910004F2B0ED97B681B69002B0AD07B685A6914
:10592000FB68B96801FB03F39A4202D30123BB6110
:1059300014E07B689B68002B10D17B68DB68002B30
:105940000CD17B681B69002B08D17B685B69002B3D
:1059500004D10023BB6101E00023BB61BB69012BC3
:105960000BD17B681A697B689B6800210091B9683C
:10597000F86800F044FAF86108E0BB69002B05D133
:105980000022B968F86800F0B2FAF861FB69002BF0
:105990000CD07B68002B03D07B681B687B6101E027
:1059A00000237B617969F86901F016F9FB691846F3
:1059B0002037BD4680BD000080B588B000AFF860DC
:1059C000B9603B601346FB71FB68BB610023FB6160
:1059D000EFF305837B617B69002B28D0BB69002B2B
:1059E00005D0BB68002B02D03B68002B03D06FF0C2
:1059F0000303FB6138E000233B6107F11002002341
:105A0000B968B86900F020FC0346012B03D06FF0A1
:105A10000203FB6128E03B69002B25D0154B4FF0BA
:105A200080521A60BFF34F8FBFF36F8F1CE0BB69CA
:105A3000002B02D0BB68002B03D16FF00303FB6186
:105A400012E000233A68B968B86900F017FB034612
:105A5000012B09D03B68002B03D06FF00103FB61E1
:105A600002E06FF00203FB61FB6918462037BD4678
:105A700080BD00BF04ED00E080B588B000AFF860E5
:105A8000B9607A603B60FB68BB610023FB61EFF3A8
:105A900005837B617B69002B28D0BB69002B05D077
:105AA000BB68002B02D03B68002B03D06FF00303D0
:105AB000FB6137E000233B6107F110031A46B96828
:105AC000B86900F0BDFE0346012B03D06FF002035E
:105AD000FB6127E03B69002B24D0154B4FF080522F
